:03000000025BBBE5
:0C5BBB00787FE4F6D8FD758129025C02B9
:10709200466C6173682050726F6772616D6D6572C4
:1070A200000045726173696E6720466C6173682ED9
:1070B2002E2E00537461727465640041626F7274A3
:0570C20000256C7500C3
:106CCA00A3F090109AE0FCA3E0FDA3E0FEA3E0226B
:106CDA002401FFE43EFEE43DFDE43CFC02165D12A5
:106CEA0075C3E4FF0275C324FFFFEE34FFFEED34E3
:106CFA00FFFDEC34FFFC02165DA3E0FBA3E0FAA360
:036D0A00E0F9228B
:0B789E0075CDC0D29275CED00274E20E
:0E75B500E0FF1275C3A3E0FF1275C3A3E0FF51
:0D75C3008FCFE5CD30E7FB75CDC0AFCF22F7
:1074E200C2927FAB126CE9E4FF126CE9E4FF127501
:0F74F200C3D292EFB41703D38001C39217A2172E
:017501002267
:0B786200C2927F05126CE9D292EF1376
:01786D0022F8
:0F780E0012786240FBC2927F061275C3D292229B
:1077DE0030170C12780EC2927FC71275C3D2922246
:106699009010B012165D30175612786240FBC29204
:1066A9007F0B1275C39010B11275B5E4FF1275C353
:1066B9009010B4126CCFFFEC4D4E4F6030E4FF12D6
:1066C90075C3126D03EF1213F09010B0126CCF90D6
:1066D90010B0126CDA9010B9E475F00112148B90B5
:1066E90010B4126CCF9010B4126CF180C3D2922204
:1060D40090109E12165D3017719010A2126CCFFFB3
:1060E400EC4D4E4F606412780EC2927F021275C35B
:1060F40090109F1275B59010A2126CCFFFEC4D4E0C
:106104004F6042126D031213AAFF1275C390109EC2
:10611400126CCF90109E126CDA9010A7E475F00107
:1061240012148B9010A2126CCF9010A2126CF190EA
:10613400109EA3A3A3E0FFE4FEFDFCFBFAF9F8C361
:0B61440012163970B1D2920260DD2209
:10757D00900FAD12165D30171212780EC2927F2049
:0C758D001275C3900FAE1275B5D2922299
:0E519900900F95EFF0A3EBF0A3EAF0A3E9F07E
:1051A700E4901099F0A312166900000000C2ACD277
:1051B700057BFF7A70799212695E7BFF1252921219
:1051C70052927A7079A412695E1277DE1278625071
:1051D700077F0A12529C80F47BFF7A7079B51269B7
:1051E7005E7F6412529CC28E30B4FDC299C2983061
:1051F700B45D3098FAC298901099E02499F582E44A
:10520700340FF583E599F0901099E004F0E070DF32
:105217009010A2121669000001009010A67401F008
:10522700A3740FF07499126CCAFF1260D4126CCC7D
:105237002400FFEE3401FEE43DFDE43CFC90109AAF
:1052470012165D75990100003099FDC29980A0C2C0
:1052570005C299C298D2AC7BFF7A7079BD12695E9C
:105267009010A174FFF0A37470F074C3126CCAFF9E
:105277009010A412165D7B017A0D795A1232487B81
:0A528700017A0D795A12695E7F006A
:10529100227A7079A312695E7BFF227E007D007CF9
:0552A100001271632200
:1065D00048656C6C6F20576F726C6400BFCEB3CC93
:1065E000B9DCC0ED00B5B1C7B0BFCEB3CC00D4CAE2
:1065F000D0EDC4D6D6D300BFAACABCB5B9BCC6CAF2
:10660000B100D2F4C1BFB5F7BDDA00B5C600D6F708
:10661000B2CBB5A500D4DDCEDEBFCEB3CC00BFAAD1
:10662000B5C600B9D8B5C600B3F5CABCBBAF5246B3
:07663000006F6E006F6600B1
:1019310041116F0044116200000000441170000069
:10194100000049116600000000000000000149117B
:101951007E00000000000000000149117500000038
:10196100000000000001C102C101C107C104C1089A
:10197100C109C105C10041117400C106C103411172
:061981006000411161004D
:10648800901162E0FCA3E0FDA3E0FEA3E0FF901101
:106498007002165DF0901179E47F64FEFDFCE0F86F
:1064A800A3E0F9A3E0FAA3E0FBC3021639E0FCA3DA
:1064B800E0FDA3E0FEA3E02401FFE43EFEE43DFD91
:1064C800E43CFC22901162E0FCA3E0FDA3E0FEA303
:1064D800E022E0F8A3E0F9A3E0FAA3E0FB2290FFB2
:0E64E80000E0FEA3E022F0E47F64FEFDFC2253
:1075D000E4901175F090117EF0901166F0901176A4
:0A75E000F090117FF0901167F02287
:0671630090109E12165D63
:107169001264CCFF9010A212165D9010A21264DA7C
:107179001264CCC39BFFEE9AFEED99FDEC98FC904E
:0B718900109E1264DAD312163950DF9A
:0171940022D8
:10778200538E7F5389F0758AE0758CB1C28DD2A970
:03779200D28C2274
:10779500538EBF53890F758BF0758DD8C28FD2ABC1
:0377A500D28E225F
:03001B0002690B6C
:10690B00C0E0C0F0C083C082C0D075D000C000C052
:0D691B0001C002C003C004C005C006C007D3
:10692800901160E004F0E0D39402400FC28EE4F0CE
:0B6938001276B1122741126BB7D28E0D
:10694300D007D006D005D004D003D002D001D000A8
:0B695300D0D0D082D083D0F0D0E03252
:106DD4007FAE12783B7FAE12783B7FAE12783BE4F5
:106DE400F5BC0000758702000075BC807FAF127887
:106DF4003B7FAF12783B7FAF12783B20B2069011F5
:0E6E0400787401F020B3069011817401F02221
:10423300C2A012778275C12475960175BC8075DEA4
:1042430027D288D2A8D28AD2AAD2AC758F20D2AF75
:10425300C20512789E12733C1271307F647E001285
:1042630078DB127026127795126B29D28E1278D2D0
:104273001252A6C28E7BFF7A6579D012769912709C
:104283005C7A6579DC1243CC7A6579E51267B17A99
:104293006579EE1243CC7A6579F71267B17A66795C
:1042A300021243DE7A66790B1267B17A66790E12CF
:1042B30043F014601914601B14605514606B146090
:1042C3006E14700302434D800012354880B0122EE5
:1042D3007880AB9011ABE0B4010E1276C77B017A04
:1042E3001179A312564D8015900FB774FFF0A37484
:1042F30066F0A37415F0E4FBFDFF126F401275D056
:10430300901166E060FAE4901166F0A3F002428136
:104313007B007A0079001273919011D7EFF0BFFF01
:1043230002E4F012764F024281124AAF0242817BCD
:10433300007A0079007D1EE4FF125D559011D8EFDD
:10434300F012764F12766802428112705C7A6679B7
:104353001E1243DE7A6679231267B17BFF7A667990
:10436300281267B17A66790B1243F0C28ED205D256
:104373000A1277FE7F0A1243FB900F95E024FE603A
:1043830015146023240270327BFF1243D41243D4EA
:104393007A667931800C7BFF7A6679341243E612B0
:1043A30043E61276F380137F997E881272B47F22DC
:1043B3007E111272E27F01126F7B7F141243FBC2E4
:0943C3000A1277FEC205024281D4
:1043CC007BFF1267B17BFF227A6679311276F37B21
:1043DC00FF227BFF1267B17BFF221276F37BFF7A01
:1043EC00667934227BFF12458B900F95EFF0227E7D
:0943FC00007D007C0012716322B7
:03000B00023BBAFB
:103BBA00C0E0C0F0C083C082C0D075D000C000C0D1
:103BCA0001C002C003C004C005C006C0071264CC0D
:103BDA002401FFE43EFEE43DFDE43CFC9011621248
:103BEA00165D43C110901174E0605043BA8090FF93
:103BFA0000C083C082E0FAA3E0FB1264E6FF7C0007
:103C0A007D0F121436C3EB9FFFEA9ED082D083F059
:103C1A00A3EFF01264E64E700A901174F0F5FEC23A
:103C2A00A080151264E6C39432EE9400500A90FF05
:103C3A000074FFF5F012148B53BA7F300505126435
:103C4A0088802D901170E0F8A3E0F9A3E0FAA3E0D0
:103C5A00FB1264CCC39BFFEE9AFEED99FDEC98FC37
:103C6A00E47B587A02F9F8D31216395003126DD44C
:103C7A003004031253A220B43A90116EE0B4010F3B
:103C8A00E4F090116A12166900000000023CF51275
:103C9A00648890116A1264B590116A12165D9011C7
:103CAA00687401F090116A1264A0703F9011670461
:103CBA00F0803890116EE07032901168F090116EB9
:103CCA0004F09011661264EE90116A1264A6400A1A
:103CDA00901167E07004901166F0901169E0B401E8
:103CEA000AE4F0901167F0901166F020B33C90114D
:103CFA0086E0B4010FE4F090118212166900000008
:103D0A0000023D6C1264889011821264B59011828F
:103D1A0012165D90118074011264EE901182126481
:103D2A00A6703F90117F04F08038901186E07032BF
:103D3A00901180F090118604F090117E1264EE903A
:103D4A0011821264A6400A90117FE0700490117EDD
:103D5A00F0901181E0B4010AE4F090117FF0901123
:103D6A007EF020B25490117DE0B4010EE4F090117F
:103D7A007912166900000000801E12648890117979
:103D8A001264B590117912165D901177740112645C
:103D9A009C700590117604F0E47FF47E01FDFC909E
:103DAA0011791264A6404420030675C76000803B5F
:103DBA007F907E011266F9803290117DE0702C901E
:103DCA001177F090117D04F090117512649C400AED
:103DDA00901176E07004901175F0901178E0B401BA
:103DEA000AE4F0901176F0901175F0D007D006D061
:103DFA0005D004D003D002D001D000D0D0D082D0D8
:063E0A0083D0F0D0E0328D
:030003000272275F
:10722700C0E0C0F0C083C082C0D075D000C000C02D
:1072370004C005C006C007126488D007D006D00571
:0F724700D004D000D0D0D082D083D0F0D0E032AD
:0300130002725620
:10725600C0E0C0F0C083C082C0D075D000C000C0FE
:1072660004C005C006C007126488D007D006D00542
:0F727600D004D000D0D0D082D083D0F0D0E0327E
:030023000264195B
:10641900C0E0C0F0C083C082C0D075D000C000C049
:0D64290001C002C003C004C005C006C007CA
:106436001264883098319010E3E599F0C2983000E4
:1064460005E0FF126FB69010E3E0FFB47F0F9011E6
:1064560061E004F0E0B4640F75C760800A9010E252
:07646600EFF0901161E4F07A
:10646D00D007D006D005D004D003D002D001D00083
:0B647D00D0D0D082D083D0F0D0E0322D
:03005B000271959A
:10719500C0E0C0F0C083C082C0D075D000C000C0C0
:1071A50004C005C006C007126488D206D007D00601
:1071B500D005D004D000D0D0D082D083D0F0D0E09C
:0171C5003297
:10005E000000000000000000002F0000000007005C
:10006E00070000147F147F1400242A7F2A120062D6
:10007E006408132300364955225000000503000082
:10008E0000001C224100000041221C000014083E0A
:10009E0008140008083E0808000000A060000008D0
:1000AE000808080800006060000000201008040224
:1000BE00003E5149453E0000427F400000426151E2
:1000CE004946002141454B31001814127F1000277C
:1000DE0045454539003C4A4949300001710905033F
:1000EE0000364949493600064949291E0000363670
:1000FE0000000000563600000008142241000014D3
:10010E0014141414000041221408000201510906AF
:10011E0000324959513E007C1211127C007F494930
:10012E004936003E41414122007F4141221C007F61
:10013E0049494941007F09090901003E4149497A6F
:10014E00007F0808087F0000417F410000204041E9
:10015E003F01007F08142241007F40404040007F55
:10016E00020C027F007F0408107F003E4141413E99
:10017E00007F09090906003E4151215E007F0919E1
:10018E0029460046494949310001017F0101003FDE
:10019E004040403F001F2040201F003F4038403F5E
:1001AE0000631408146300070870080700615149C2
:1001BE00454300007F41410000552A552A55000055
:1001CE0041417F00000402010204004040404040D3
:1001DE00000001020400002054545478007F48446B
:1001EE00443800384444442000384444487F0038A2
:1001FE005454541800087E0901020018A4A4A47CCB
:10020E00007F080404780000447D40000040808494
:10021E007D00007F102844000000417F4000007CDC
:10022E0004180478007C08040478003844444438E8
:10023E0000FC242424180018242418FC007C080434
:10024E00040800485454542000043F444020003C0D
:10025E004040207C001C2040201C003C4030403C94
:10026E00004428102844001CA0A0A07C0044645424
:10027E004C44141414141414000000000000000068
:10028E000000000000000000000000000000000060
:10029E000000000000000000000000000000000050
:1002AE0080C0E070303818181818183070E0E0C0B0
:1002BE00000000000000000000000000C0F8FEFF7B
:1002CE001F07010000000000000000000000030FE7
:1002DE00FFFEF8C000000000000000FCFFFFFF035F
:1002EE000000000000000000000000000000000000
:1002FE0001FFFFFFFC000000000000FFFFFFFF00FA
:10030E0000000000000000000000000000000000DF
:10031E0000FFFFFFFF000000000000000F7FFFFF47
:10032E00E08000000000000000000000000000E07F
:10033E00FEFF7F0F00000000000000000000010320
:10034E00070F1E383070606060606030381C1F0F01
:10035E00030100000000000000000000000000008B
:10036E00000000000000000000000000000000007F
:10037E00000000000000000000000000000000006F
:10038E00000000000000000000000000000000005F
:10039E0000000000000000000000000000000080CF
:1003AE008080808080C0C0E0F0F800000000000077
:1003BE00000000000000000000000000000000012E
:1003CE00010101010103FFFFFFFF0000000000001B
:1003DE00000000000000000000000000000000000F
:1003EE00000000000000FFFFFFFF00000000000003
:1003FE0000000000000000000000000000000000EF
:10040E00000000000000FFFFFFFF000000000000E2
:10041E0000000000000000000000000000000000CE
:10042E00000000000000FFFFFFFF000000000000C2
:10043E00000000000000000000000000000000604E
:10044E006060606070787F7F7F7F787060606060D2
:10045E00600000000000000000000000000000002E
:10046E00000000000000000000000000000000007E
:10047E00000000000000000000000000000000006E
:10048E00000000000000000000000000000000005E
:10049E00000000000000000000000000000080C00E
:1004AE00E0E0703038181818181818383070F0E06E
:1004BE00C08000000000000000000000F8FFFFFFF9
:1004CE00F1C000000000000000000000000000036A
:1004DE00FFFFFFFC0000000000000000010303030B
:1004EE0003010000000000000000000080C0F0FECC
:1004FE007F3F0F0100000000000000000000000020
:10050E00000000000080C0E070381C0E07030100E0
:10051E000000000000000000000000000080C0E0AD
:10052E00F0381C0E07030100000000000000000060
:10053E000000F0F0000000000000007C7E7F7B7960
:10054E007878787878787878787878787878787C19
:10055E007E7F7F0000000000000000000000000011
:10056E00000000000000000000000000000000007D
:10057E00000000000000000000000000000000006D
:10058E00000000000000000000000000000000005D
:10059E00000000000000000000000000000080C00D
:1005AE00603030101818181818383870F0E0C08005
:1005BE00000000000000000000000000003E7F7FF1
:1005CE003800000000000000000000000007FFFFE0
:1005DE00FFFC000000000000000000000000000012
:1005EE000000000080808080C0C0E060783E1F0F59
:1005FE0007010000000000000000000000000000E5
:10060E00000000000101010101030303070E1C7C21
:10061E00F8F0C0000000000000000000E0F0F8F864
:10062E00F8F0000000000000000000000000008054
:10063E00FFFFFF7F000000000000000001070F1FFA
:10064E001F383070606060606060603030381E0F40
:10065E000703010000000000000000000000000081
:10066E00000000000000000000000000000000007C
:10067E00000000000000000000000000000000006C
:10068E00000000000000000000000000000000005C
:10069E00000000000000000000000000000000004C
:1006AE0000000000000000000000C0E0F8F8F800B4
:1006BE00000000000000000000000000000000002C
:1006CE000000000000C0F0781E0703FFFFFFFF00D0
:1006DE00000000000000000000000000000000808C
:1006EE00C0F0381E07030000000000FFFFFFFF00F0
:1006FE000000000000000000000080C0F0381E075F
:10070E000100000000000000000000FFFFFFFF00DE
:10071E0000000000000000000000030303030303B9
:10072E000303030303030303030303FFFFFFFF039B
:10073E000303030303030000000000000000000099
:10074E0000000000606060606060707F7F7F7F707F
:10075E0060606060600000000000000000000000AB
:10076E00000000000000000000000000000000007B
:10077E00000000000000000000000000000000006B
:10078E00000000000000000000000000000000005B
:10079E00000000000000000000000000000000F853
:1007AE00F87878787878787878787878787878783B
:1007BE00787838000000000000000000000000FF04
:1007CE007F0000000000000000000000000000009C
:1007DE000000000000000000000000000000FEFF0E
:1007EE0080E0703838181C1C1C1C1C3C3C78F8F03F
:1007FE00E0C0000000000000000000000000030345
:10080E000300000000000000000000000000010FC7
:10081E00FFFFFFF80000000000000000F0F8FCFCF5
:10082E00FC7800000000000000000000000000C086
:10083E00FFFFFF1F00000000000000000103070F74
:10084E001F3830306060606060606030383C1E0F72
:10085E000703000000000000000000000000000080
:10086E00000000000000000000000000000000007A
:10087E00000000000000000000000000000000006A
:10088E00000000000000000000000000000000005A
:10089E00000000000000000000000000000000004A
:1008AE000080C0E060303018181818181838F0F0B2
:1008BE00E0C08000000000000000000080F0FCFEA0
:1008CE000F03010000000000000000000000070FF1
:1008DE000F0F070000000000000000F0FFFFFF01F7
:1008EE0080C0E0E070703838383838387870F0F002
:1008FE00E0C0800000000000000000FFFFFFFF1EB0
:10090E0007030100000000000000000000000003CB
:10091E000FFFFFFEF0000000000000033FFFFFF896
:10092E008000000000000000000000000000000039
:10093E00C0FFFFFF1F0000000000000000000307C3
:10094E000F1F3C3830706060606060603030381E61
:10095E000F07030000000000000000000000000070
:10096E000000000000000000000000000000000079
:10097E000000000000000000000000000000000069
:10098E000000000000000000000000000000000059
:10099E0000000000000000000000000000F0F8F869
:1009AE00F8F87878787878787878787878787878B9
:1009BE00F8F878380000000000000000383F07010A
:1009CE0000000000000000000000000080E0781E23
:1009DE000701000000000000000000000000000001
:1009EE00000000000000000080E0FC7F0F0100000E
:1009FE0000000000000000000000000000000000E9
:100A0E000000000000C0F8FEFF1F03000000000001
:100A1E0000000000000000000000000000000000C8
:100A2E00000000C0FEFFFFFFFF00000000000000FE
:100A3E0000000000000000000000000000000000A8
:100A4E000000003F7F7F7F7F3F000000000000001E
:100A5E000000000000000000000000000000000088
:100A6E000000000000000000000000000000000078
:100A7E000000000000000000000000000000000068
:100A8E000000000000000000000000000000000058
:100A9E00000000000000000000000000000080C008
:100AAE00E0F0703038181818181818383070F0E058
:100ABE00C08000000000000000000000FCFFFFFFEF
:100ACE008300000000000000000000000000000392
:100ADE00FFFFFFFC000000000000000001070F1FD9
:100AEE003F7E7CF8F0F0E0E0C0C080C06070381E41
:100AFE001F0F03000000000000000000C0F0F8FC13
:100B0E003E0E07030101010303070F1F1F3EFEFCEC
:100B1E00F8F0C000000000000000007FFFFFFF8023
:100B2E0000000000000000000000000000000003B4
:100B3E00FFFFFF7F000000000000000001070F0F05
:100B4E001E383830706060606060607030381C1F16
:100B5E000F07010000000000000000000000000070
:100B6E000000000000000000000000000000000077
:100B7E000000000000000000000000000000000067
:100B8E000000000000000000000000000000000057
:100B9E00000000000000000000000000000080C007
:100BAE00E0F07038181818181818383070E0C08037
:100BBE000000000000000000000000E0FCFFFF0F3E
:100BCE000100000000000000000000000000031FF4
:100BDE00FFFCF000000000000000007FFFFFFFC0E0
:100BEE00000000000000000000000000000080E097
:100BFE00FFFFFFFF000000000000000003070F1FB3
:100C0E003F3C7878707070707038381C1E0F03C0BF
:100C1E00FFFFFF3F00000000000000000080C0C08A
:100C2E00C0800000000000000000000000C0F8FFBF
:100C3E007F1F0300000000000000000000071F3FA0
:100C4E003F3F7060606060603030381C0F070301FA
:100C5E000000000000000000000000000000000086
:100C6E000000000000000000000000000000000076
:100C7E000000000000000000000000F8000000006E
:100C8E00000000330000000000100C02100C0200E7
:100C9E0000000000000000000040C07840C0780056
:100CAE0000043F04043F040000708888FC083000F4
:100CBE0000182020FF211E00F008F08060180000B0
:100CCE0000310C031E211E0000F008887000000089
:100CDE001E21232C1927211000120E0000000000E7
:100CEE000000000000000000000000E018040200F8
:100CFE00000000071820400000020418E000000069
:100D0E000040201807000000404080F08040400066
:100D1E000202010F0102020000000000E0000000CC
:100D2E00000101010F0101010000000000000000A0
:100D3E0000907000000000000000000000000000A5
:100D4E00000101010101010000000000000000008F
:100D5E00003030000000000000000000C038040029
:100D6E00006018070000000000E010080810E00006
:100D7E00000F102020100F0000001010F8000000CF
:100D8E00000020203F202000007008080808F00016
:100D9E000030282422213000003008080888700016
:100DAE000018202121221C000000804030F8000095
:100DBE0000060524243F242400F8888888080800AB
:100DCE000019202020110E0000E0108888900000ED
:100DDE00000F112020201F00001808088868180036
:100DEE000000003E010000000070880808887000B6
:100DFE00001C222121221C0000F008080810E0002F
:100E0E000001122222110F00000000C0C0000000DD
:100E1E0000000030300000000000008000000000E4
:100E2E00000000E0000000000000804020100800DC
:100E3E0000010204081020000040404040404000E5
:100E4E000002020202020200000810204080000090
:100E5E000020100804020100007048080888700085
:100E6E000000003037000000C030C828E810E00055
:100E7E00071827282F2817000000C038E0000000B0
:100E8E00203C23020227382008F88888887000004A
:100E9E00203F202020110E00C0300808080838001E
:100EAE00071820202010080008F808080810E00095
:100EBE00203F202020100F0008F88888E808100036
:100ECE00203F20202320180008F88888E80810000A
:100EDE00203F200003000000C03008080838000042
:100EEE0007182020221E020008F808000008F80843
:100EFE00203F210101213F20000808F808080000CA
:100F0E000020203F2020000000000808F8080800FC
:100F1E00C08080807F00000008F888C02818080074
:100F2E00203F20012638200008F8080000000000AD
:100F3E00203F20202020300008F8F800F8F80800A4
:100F4E00203F013E013F200008F830C00008F8089D
:100F5E00203F200007183F00E01008080810E000AE
:100F6E000F10202020100F0008F808080808F000C5
:100F7E00203F210101010000E01008080810E000E8
:100F8E000F10282830504F0008F888888888700085
:100F9E00203F2000030C302000708808080838001D
:100FAE000038202121221C00180808F80808180013
:100FBE000000203F2000000008F808000008F80894
:100FCE00001F202020201F000878880000C8380845
:100FDE00000007380E01000008F800F800F80800BD
:100FEE0000033E013E030000081868808068180860
:100FFE0020302C03032C30200838C800C8380800D5
:10100E000000203F2000000010080808C838080023
:10101E002038262120201800000000FE02020200C7
:10102E000000007F40404000000438C00000000077
:10103E00000000010638C00000020202FE0000009F
:10104E00004040407F000000000004020204000047
:10105E000000000000000000000000000000000082
:10106E00808080808080808000020204000000006A
:10107E0000000000000000000000808080000000E2
:10108E0000192424123F200010F000808000000080
:10109E00003F112020110E00000000808080000013
:1010AE00000E112020201100000080808090F000A2
:1010BE00001F202020103F20000080808080000034
:1010CE00001F242424241700008080E0909020002C
:1010DE000020203F202000000000808080808000C3
:1010EE00006B94949493600010F000808080000058
:1010FE00203F210000203F20008098980000000033
:10110E000020203F20200000000000809898000062
:10111E0000C08080807F000010F000008080800082
:10112E00203F240629302000001010F80000000097
:10113E000020203F20200000808080808080800062
:10114E00203F20003F20003F8080008080800000F4
:10115E00203F210000203F20000080808080000082
:10116E00001F202020201F008080008080000000B3
:10117E0080FF912020110E00000000808000800072
:10118E00000E11202091FF808080800080808000E2
:10119E0020203F2120000100000080808080800000
:1011AE000033242424241900008080E08080000075
:1011BE000000001F202010008080000000808000B2
:1011CE00001F202020103F20808080008080800023
:1011DE0000030C300C0300008080008080008080B3
:1011EE00010E300C073806010080808000808000E0
:1011FE000020310E2E312000808080000080808003
:10120E000081867818060100008080808080800032
:10121E000021302C222130000000000000FC0202D0
:10122E0000000000013E404000000000FF000000F2
:10123E0000000000FF0000000202FC0000000000A1
:10124E0040403E01000000000002010202040200C4
:10125E000000000000000000000000000000000080
:10126E000000000000000000AE2010B0C8001040CA
:10127E008180A1A6A83FA4D300D5F0D922DA12DB33
:04128E00208D14AFEC
:1019870064000000000000000000000000000000EC
:101997000000000000000000000000000000000040
:1019A7000000000000000000000000000000000030
:1019B7000000000000000000000000000000000020
:1019C7000000000000000000000000000000000010
:101D870000000000080D010204081020408008151B
:081D97000103070F1F3F7FFF4E
:102AF100A42409F582E5F03404F5832FF583E4F08D
:102B010075F009EFA42410F582E5F03405F5832F63
:102B1100F583E4F075F009EFA4227824E6FF75F05F
:102B210009A42411F582E5F03405F5832FF583E03E
:102B3100229010A5A3E475F0011214A1A9F0FA12D4
:102B410013AA9010AEF09010A5E0FBA3E475F0017C
:102B51001214A1A9F0FA0213AA7824E6FF75F0096C
:102B6100A4240DF582E5F0340522F0EE9010CFF0AB
:102B71009010C6E0FFFD3395E0FC9010D0E02DF001
:102B81009010CFE03CF022F583EE2583F583EFF042
:102B910075F009EEA42409F582E5F03404F583EE1D
:102BA1002583F58322EF75F009A42410F582E5F061
:102BB1003405F58322E0FF9010DAE09010D92FFF61
:102BC100E03400FE74002FF58274003EF58322FF8D
:102BD100E0FE75F009A4240BF582E5F0340522909E
:102BE10010C8E0FF3395E0FE9010CCE0D39FEE6477
:102BF10080F874809822E0FE75F009EFA4240AF5AC
:102C010082E5F03405227824E6FF75F009A4240C4E
:102C1100F582E5F03405229010AFE0245FF09010CA
:102C2100AEE0245FF0E0FF7E007C007D5E1216D0F6
:102C3100A804A905AA06AB07A3E0FFE4FCFDFEEB8F
:102C41002FFFEE3AFEED39FDEC38FCE47B20FAF97A
:102C5100F802151C7824E6FF75F009A4240EF5820C
:102C6100E5F0340522EF75F009A4240FF582E5F0B3
:102C7100340522E0FE3395E09010CFF0CEA3F09022
:102C810010CFE0FEA3E0229010A1E0FF7E007C01C6
:102C91007D09121424740A2FF974043E22EFF0A363
:102CA100EBF0A3EAF0A3E9F0229010A5E0FBA3E08A
:102CB100FAA3E0F9222411F582E5F03405F5832F1A
:102CC100F583E4F02275F009EFA42409F582E5F01B
:102CD1003404227825E6A2E713F6D36480948D228A
:102CE1007E007F081213629010A9E02408F0901072
:102CF100A8E03400F0D3A3E022E0FF9010CEE0FE84
:102D0100EF6E22131313541F75F080A4FFE5F0F04A
:102D1100A3EFF022F5832EF583E022C37825E66444
:102D21008094802275F006EDA4245EF582E5F034EE
:102D310000F583E58222FA9010A8E0FEA3E029F9CC
:102D4100EA3EA801FC7D01228E827583001213C325
:102D51009010D2F09010CDE0229010D2E0FF9010B0
:102D6100D8E0FEEF5E9010D2F022F5832FF5837448
:102D71004022F583EF2583F583EEF0227825E6FFE7
:102D8100E02FF0229010A674FFF5F012148BEF756E
:102D9100F010A4229011CDE0FF9011CBE022901011
:102DA100CBE0FF3395E0FE22F09010D0E004F0225A
:102DB100EF9DEC6480F8EE64809822947F9010A8D7
:102DC100E0940022E0FF75F0080213882411F582D7
:102DD100E5F0340522F5832FF5837401F0229FFF7E
:102DE10074FFA8070822A607A3E0FD3395E0FC22A3
:102DF100F5832FF583EE229010AFF09010AEE0FF37
:102E0100C39480229010CFE004F0229010CCE00413
:102E1100F0229010CBE0FF9010CFE0FEC39F22EF95
:102E21002583F583E4F022F582E43583F58322904E
:102E310011D0E0FF9011CAE02FF022F0A3F0A3F02F
:102E4100A3F022FFC3EE6480F8EF64809822901112
:102E5100CAE0FF9011CCE0FD227825E6FFC3648033
:102E61009488229010AA12165D9010B422FE901040
:072E7100D2E0FDA8060822D3
:0C786E00D3122DB1400122AE04AF052260
:0C787A00C3122DB1500122AE04AF052254
:0D783B00C2A3C2A1C2A68F80D2A6D2A322F2
:0D784800C2A3D2A1C2A68F80D2A6D2A322D5
:106BB700E4FEEE24B0FF12783BE4FF12783B7F102F
:106BC70012783BC2A3D2A1FFC2A675F080EEA42F14
:106BD700F582E435F0F583E5822400F582E5833418
:106BE70000F583E0F580D2A60FEFB480DB0EEEB49C
:046BF70008C0D2A35D
:016BFB002277
:1076B100E4FFFE122BC5E4F00FBF00010EE4B50795
:0576C100F2EEB404EE3E
:0176C60022A1
:106B2900E4FF75F009EF122B61122D6B122B141271
:106B39002C0F122D6B122B14122BD7122D6B122B1B
:106B490014122BFE122D6B122B14122C6B122B0EFE
:106B5900122C5D122CBE75F009EF122AF1122CB617
:066B69000FEF640970BC8F
:016B6F002203
:1076C700E4FF122BA62FF5837401122B14122CB68C
:0576D7000FEFB409ED06
:0176DC00228B
:0F781D00122BA62FF5837401122B14122CB622F6
:107026007EFFC2A21EEE60030080F9D2A27EFF1E82
:10703600EE60030080F9E4FEEE90127693FF12787C
:107046003B0EEEB41CF2E4900401122E3CA3122E69
:057056003C900400F075
:01705B002212
:1077A800E4FF122CC6122B2B7001220FEFB409F242
:0277B8007FFF51
:0177BA0022AC
:106E1200900FB5EDF0A3EBF0900FB4EFF0900FB739
:106E2200122CAD126058900FB4E0FF122BA7122E55
:106E320020900FB5122BF7122D73900FB6E0900F22
:0D6E4200B4122BD0122B887401F0AF062281
:10771E00900401EFF0A3EDF0A3EBF0900FB4E09026
:04772E000404F0223D
:0678EC00900400EFF02201
:10274100C213E47824F67824E6FF640970030229B1
:1027510078122CC6122B2B7003022972E6FF75F03A
:1027610009A42410F582E5F03405122B2B640160D5
:10277100030227F475F009EF122B22FFC3940450D2
:1027810010E6FE75F009A4122DCD122D1504F0806E
:1027910028EFC394085008122B1B2403F0801A124F
:1027A1002B1BC39410500C75F009EF122B2224053A
:1027B100F08006122B1B2408F0122B1BFE75F0096A
:1027C100EF122B61122B2B2EF0122B5C122B2BD321
:1027D100648094C050030228B2E6FF75F009122A02
:1027E100F1122DCD122B0E122C0F122B0E122B6269
:1027F100022921122C07122B2B122BF8122B2BFF43
:102801006E604A122AB6500476018019122E5A506F
:102811000476038010C3EF64809490782550047689
:102821000580027608122C07122B2B122BF8122B83
:102831002B122E4450087825E675F0FFA4F6782572
:10284100E6FF18E6FE122C0B122D152FF0122B5A53
:10285100122B2BFE75F009EF122BD6122B2BFF6ECC
:10286100604F122AB6500476018019122E5A500474
:1028710076038010C3EF6480949078255004760528
:1028810080027608122B5A122B2BFE75F009EF12DB
:102891002BD6122B2B122E4450087825E675F0FF0B
:1028A100A4F67825E6FF18E6FE122B5E122D152FF1
:1028B100F0122C55122B2BFD3395E0FC75F009EF2E
:1028C100122C0E122B2BFF3395E0FEEF2DEE3CC3A5
:1028D10064809480402EE6FE122B5E122D15FFC3FC
:1028E100648094C0501EE6FD122C67F5832DF5839C
:1028F100122DEAEFFB3395E0FAEB2DEA3CC364803D
:10290100948050227824E6FF75F009122CCA122B0C
:102911000E122B62122B0E122C0F122AFA122DCD2F
:10292100122CBE0229727824E6FD122C0BF5832DA0
:10293100F583E0FFC00775F009ED122B61F5832DDA
:10294100F583E0FDC005EE122C8CFA7B01122C55AB
:10295100122B2BFE122C66122B2B9010CCF0901008
:10296100CBEEF0E49010CDF0A3F0D005D0071240EB
:102971002D782406022747900400E07003022A966E
:10298100900405E0FF900401E0FE6F6021122A9C93
:10299100500F122D1C500476FF800D782576018092
:1029A10007122CD44002760D900405122D7D90045F
:1029B10006E0FF900402E0FE6F6021122A9C500F96
:1029C100122D1C500476FF800D78257601800712A8
:1029D1002CD44002760D900406122D7D900407E060
:1029E100FF900403E0FE6F6025122AD7500F122DCD
:1029F1001C500476FF800D782576018007122CD4B7
:102A01004002760D7825E6FF900407E02FF0900450
:102A110008E0FF900404E0FE6F6025122AD7500FF2
:102A2100122D1C500476FF800D7825760180071247
:102A31002CD44002760D7825E6FF900408E02FF0B3
:102A4100900405122DA2E4FDFC12786E7828A607E9
:102A5100A3122DA212786E7829122DE77F7F7E00B6
:102A610012787A7826122DE77F3F7E0012787A78E5
:102A710027A60718E6FBC364809480401808E6FE89
:102A810064809480400F7828E6FF08E6FD9010C925
:0A2A9100EEF0123E10201302C28E78
:102A9B0022D213C3EE9FFF7825F63395E0FE127812
:102AAB0092C3EF9402EE6480948022D213EEFD3336
:102ABB0095E0FCEF3395E0FEC3EF9DFFEE9CFE121D
:102ACB0078927825EFF6C36480948422D213C3EEF8
:102ADB009FFF7825F63395E0FE127892C3EF9402B0
:062AEB00EE6480948022DD
:0878E400122C66122B2BFF226F
:0C78860075F009EF122C5C122B2BFF2276
:10749F00122B01122BFEF5832FF583ED122B1412F5
:1074AF002BD7F5832FF583EB122B14122CCB122D28
:0274BF00D622D3
:106E4F00122BA62FF583E4F0AE0575F009EF122C87
:106E5F000E122DF1122B14122BFE122DF1F0AE0388
:106E6F0075F009EF122B61122DF1122B14122BD783
:0D6E7F00122DF1122B14122CCB122DD62245
:10752200E4FEEE122BA72EF583E0700D75F009EE46
:0E753200122BD6122D15C39FF00EEEB409E4F5
:017540002228
:1074C100E4FE75F009EE122BAA2EF583E0700C751F
:1074D100F009EE122BD6122D152FF00EEEB409E2A3
:0174E1002288
:066058009010A1122CA122
:10605E00E4A3F0EFC39409506C9010A1122B4A6088
:10606E003C24E0FDE4FEEE640660EE122D252E12B9
:10607E002E28E493FC9010A4E0FB75F009EFA42405
:10608E000AF582E5F03404F5832FF583E5822B12B1
:10609E002E28ECF09010A4E004F00E80C99010A40D
:1060AE00E0FD75F009EF122C5CF5832FF583ED12F0
:1060BE002B14122C6BF5832FF5837408122B1412EC
:0560CE002CCB122DD6C1
:0160D30022AA
:0B59FB00900F98EFF0A3EDF0A3EBF08D
:105A0600900F9CE0FF900F9BE08FF0A4FFAEF05448
:105A160007600774082FFFE43EFEEF7803CEC3133A
:105A2600CE13D8F9FF7D007C0112786EC006C00740
:105A3600900F98E0FF7E00122C91A801FC7D01904A
:105A46000F9D122CADD007D006121362900F98E06E
:105A5600FF122BA7122E20900F99122BF7122D73DF
:105A6600900F9AE0900F98122BD0122B9EEFF09089
:105A76000F9BE0FF75F009EE122C5C122B9EEFF0E7
:0F5A8600900F9CE0FFEE122C67122B887401F03A
:015A950022EE
:106F4000900FB5EDF0A3EBF0900FB4EFF0900FB70A
:106F5000122CAD124837900FB4E0FF122BA7122E5F
:106F600020900FB5122BF7122D73900FB6E0FF9003
:0B6F70000FB4122BD1122B9EEFF02269
:064837009010A1122C9E5E
:10483D00122CA0E4A3F0A3F0122CAA1213AA604329
:10484D00122B32122DF85026122D852476F9740A6A
:10485D0035F0FA7BFFC002C001122C88122D37D023
:10486D0001D002122CE1122DBC40CD024890122C29
:10487D0018122E6412166900000010124925122D0F
:10488D00BC40B59010A2E0F9A3E0FAA3E0A3C912D1
:10489D002CA2122CAA1213AA6054122B32122DF82C
:1048AD005028122D85247EF9740A35F0FA7BFFC04D
:1048BD0002C001122C88122D37D001D002122CE12A
:1048CD0094FF122DBE40CB0248FB122C18EF241082
:1048DD00FFE43EFEE43DFDE43CFC122E641216693D
:1048ED000000001012492594FF122DBE40A4901017
:1048FD00A8E0C313A3E013FF9010A1E0FE122C5902
:10490D00122B9EEFF075F009EE122C6A122B9E748D
:07491D0010122B907401F051
:10492400229010A1E0FF7E007C017D091214247402
:104934000A2FF974043EFA9010A8E0FEA3E029F9C6
:10494400EA3EFA9010B87401F0A3EAF0A3E9F090FB
:1049540010AAE0FCA3E0FDA3E0FEA3E0FF12669929
:104964009010A9E02410F09010A8E03400F0D3A334
:02497400E0223F
:0669AD00900FA3122C9EC6
:1069B300ED75F080A4FF900FA3E07C002FFFEC3572
:1069C300F0FE900FA4122B4A602D24E0FDE4900FFB
:1069D300A7F0900FA7E0FC640660E7122D252C12A8
:1069E3002E28E493FC122BC5ECF00FBF00010E9090
:0769F3000FA7E004F080DBB8
:0169FA00227A
:0269FB00AC07E7
:1069FD00ECD3947F5044ED9440503FED9010D11264
:106A0D002D049010D2E02CF09010D1E03400F0ED78
:106A1D0054079010D3F09010D1E0FEA3E02400F5C0
:106A2D008274003EF583C083C082E0FF9010D3E0F6
:0A6A3D00240DF8EF46D082D083F05C
:016A4700222C
:04002600AA05A90777
:10002A00EAD39B4006AF03AB02AA07AF01AD0212A7
:08003A0069FB0AEBC39A50F3C5
:01004200229B
:04756000AA07A905C8
:10756400EAD3994006AF01A902AA07AF02AD0312FC
:0875740069FB0AE9C39A50F318
:01757C0022EC
:0F46E5009011CBEDF09011CAEFF09011CCEBF0EB
:1046F400B5070E9011CAE0FFA3E0FD9011CD02476B
:1047040079122D95FBB50706122E4F027560901194
:10471400CAE0FC9011CCE0C39CFE9011CEF0901145
:10472400CBE0FD9011CDE0FBC39D9011CFF0EED313
:1047340094004006A37401F080159011CEE0C39458
:104744000050089011D074FFF08004AF04802890CA
:1047540011CFE0FFD3940040089011D17401F08090
:1047640019EFC3940050089011D174FFF0800B121C
:104774002E4F9011CBE0FB0200269011CEE0FF906B
:1047840011D0E08FF0A49011CEF0A3E0FF9011D1EE
:10479400E08FF0A49011CFF09011CEE0FFFBA3E0E6
:1047A400FEFAEFC39E4040EA9F9011D2F09011CCE4
:1047B400E0FE9011CAE0FF6E602BA3E0FD1269FBDE
:1047C400122E309011D2E0C394005005E02AF080FC
:1047D400DCC3EA9BFF9011D2E02FF09011D1122D8F
:1047E400982FF080C880409011CFE0FFC3EB9F90DA
:1047F40011D2F0122D95FD6F602D9011CAE0FF12B9
:1048040069FB9011D1122D982FF09011D2E0C3942E
:10481400005005E02BF080DBC3EB9AFF9011D2E04F
:104824002FF0122E3080CC9011CAE0FFA3E0FD12CD
:0248340069FB1E
:01483600225F
:0F3E10009010C6EFF09010C8EBF09010C7EDF0D7
:103E1F009010C9E0FFD36480F8ED648098400302EE
:103E2F00402C9010C8E0FE9010C6E0FCEE6480F8C5
:103E3F00EC648098400302402C9010C7E0FDB5075A
:103E4F000CECB506089010C6E0FF0269FB9010C796
:103E5F00122DC5FE9010CAF0EF122DC7AFF09010C3
:103E6F00C7EFF09010C9122DC5FD9010CBF0EF12D7
:103E7F002DC7AFF09010C9EFF0EE6D70789010C7AE
:103E8F00E0FF9010C9E0C39F2415F8E69010CEF024
:103E9F00E0FEA807088002C333D8FC9010CEF012C2
:103EAF002D9F9010CFF0A3EFF064084E700BE0241D
:103EBF00FFF09010CFE034FFF0122C807807C3335F
:103ECF00CE33CED8F9122B6B9010CCEFF0122BE033
:103EDF00400302402C122C802400122BC8C083C038
:103EEF0082122CFAD082D083122DA97003122E05C4
:103EFF00122E0C80D89010C7E0FF6053C3740712C6
:103F0F002DDF8002C313D8FCF49010CEF09010CAAE
:103F1F00122C747807C333CE33CED8F9122B6B9093
:103F2F0010CCEFF0122BE05020122C802400122B1B
:103F3F00C8C083C082122CFAD082D083122DA970F0
:103F4F0003122E05122E0C80DB9010CAE004F090A5
:103F5F0010C9E0FF64076052EF04122DE08002C326
:103F6F0033D8FCF49010CEF09010CB122C7478074D
:103F7F00C333CE33CED8F9122B6B9010CCEFF01297
:103F8F002BE05020122C802400122BC8C083C0823B
:103F9F00122CFAD082D083122DA97003122E051283
:103FAF002E0C80DB9010CBE014F09010CBE0FF9044
:103FBF0010CAE0FED3EF122DB450629010CDEEF088
:103FCF00122D9F9010CDE0FD122BED5050EDFF9074
:103FDF0010CFE4F0EF122C7E7807C333CE33CED858
:103FEF00F9122B6B9010CE74FFF09010CCEFF012F3
:103FFF002BE05020122C802400122BC8C083C082CB
:10400F00122CFAD082D083122DA97003122E051212
:0D401F002E0C80DB9010CDE004F0023FCFAE
:01402C002271
:067681009010A1122CA1E3
:107687009010A1122B4AFF6007C394A140F2D322A6
:01769700C32F
:0176980022CF
:10402D009010C6EFF09010C8122CA19010C7EDF0B3
:10403D009010CEE0FFC3ED9FFF9010D1F09010CC0B
:10404D00E0FE131313541F9010D3F0EF5407A3F099
:10405D00EE2DA3F0E49010D0F09010D3E0FF90106F
:09406D00D0E0C39F40030242327F
:10407600E0FB75F008A4FFA3E02F9010D6F0E0FE59
:104086002408A3F0A374FFF0EE131313541F75F066
:1040960080A4FFA3122D0E9010CBE0FFEB8FF0A4AF
:1040A600FF9010C8E0FBA3E0FAA3E02FF9EA35F091
:1040B600FA9010DB122CA19010CEE0FF6027901032
:1040C600C7E0FE9010D7E0FDC39E5003024229EDE3
:1040D600D3944040030242299010D5E0FEA3E09E0F
:1040E6004003024229EF60389010C7E0FF9010D6D7
:1040F600E0FEC39F500EC3EF9E122DE08002C33335
:10410600D8FC80189010D5E0FF9010D7E0FED39F22
:10411600400EEE122DDF8002C313D8FC9010D8F0AB
:104126009010D4E0705B9010D6E0C394405052E4F7
:0C4136009010CFF0122E1340030242291B
:104142009010C6E0FFEE2F9010DEF0C39480502C4A
:104152009010DB122CAD122D4960069010D2E0F4C3
:10416200F0122D5A9010DE122BB6C083C082E0FFEF
:0C4172009010D2E0FEEF4ED082D083F01F
:09417E009010CFE004F002413A78
:104187009010D7E09010DE122D04E49010CFF012BB
:074197002E13400302422930
:10419E009010C6E0FFEE2F9010E0F0C394805072A6
:1041AE009010DB122CAD122D4960069010D2E0F467
:1041BE00F0122D5A9010D6E0C39440501F9010E08C
:1041CE00122BB6C083C082E0FF9010D4E0122E6E88
:1041DE008002C333D8FC4FD082D083F09010D7E04A
:1041EE00C39440502D9010E0E0FF9010DFE090104F
:1041FE00DE122BBFC083C082E0FF9010D4E0FEC35E
:10420E0074089E122E6E8002C313D8FC4FD082D03B
:02421E0083F02B
:094220009010CFE004F002419679
:094229009010D0E004F0024066A0
:014232002269
:10231F00D6DCD2BB00D6DCB6FE00D6DCC800D6DCDD
:10232F00CBC400D6DCCEE500D6DCC1F900D6DCC8C4
:10233F00D500455252004D6F6E00547565005765BC
:10234F0064005468720046656200536174005375EF
:10235F006E00323025303262752D25303262752D88
:10236F0025303262752025730025303262783A2588
:10237F0030326278005B4D5D005B43445D00B5B960
:10238F00BCC6CAB13A2575CCEC00436F6E66697254
:10239F006D2E2E2E00B5B9BCC6CAB100CFD6D4DA79
:1023AF00CAB1BCE400BFAACABCA3A100BBB9D3D0B9
:1023BF00256275C3EB00D6D0B6CF00D2D1D0DEB830
:1023CF00C4B5B9BCC6CAB100001F1C1F1E1F1E1FFB
:1023DF001F1E1F1E1FFF231FFF2324FF2329FF2361
:1023EF002DFF2332FF2337FF233CFEFFFFFFFF0F9D
:1023FF000F0F0F0F0F0F0F0FFFFFFFFFFEFFFFFF5F
:10240F00FFFF000000000000000000FFFFFFFFFFC4
:10241F007FFFFFFFFFF0F0F0F0F0F0F0F0F0FFFFC4
:10242F00FFFF7F000000000000203CFFFFFFFFFFC9
:10243F000000000000000000000000000000FFFF8F
:10244F00FFFFFF0000000000000000000000000080
:10245F0000FFFFFFFFFF00000000000000FEFFFF76
:10246F00FFFF0F0F0F0F0F0F0F0FFFFFFFFFFE00ED
:10247F00000000000080C0E0F0F8FC7E3F1F0F0757
:10248F000301E0F0F8FCFEFFFFFFF7F3F1F0F0F0CF
:10249F00F0F0F0F0F0FEFFFFFFFF0F0F0F0F0F0F29
:1024AF000F0F0FFFFFFFFFFE0000000000000008EE
:1024BF001C1C3E3E7E7FF7F7F7E3E37FFFFFFFFF36
:1024CF00F0F0F0F0F0F0F0F0F0FFFFFFFF7F000012
:1024DF0000000080E0F0FCFF7F1F0F0301000000F1
:1024EF000080C0F0FCFEFF3F0F0301000000FFFF64
:1024FF00FFFF00000F0F0F0F0F0F0F0F0F0F0F0F1B
:10250F000FFFFFFFFF0F0FFFFFFFFFFF0F0F0F0F5C
:10251F000F0F0F0F0F0F0F0F0F0F1F1F1F1F1F1E5D
:10252F001E1E1E1E1E1E1E1EFEFEFEFEFC7FFFFF3B
:10253F00FFFFF0F0F0F0F0F0F0F0F0FFFFFFFF7FA3
:10254F00FEFFFFFFFF0F0F0F0F0F0F0F0F0F7F7FFD
:10255F007F7F7EFFFFFFFFFF3C3C3C3C3C3C3C3C15
:10256F003CFCFCFCFCF87FFFFFFFFFF0F0F0F0F00D
:10257F00F0F0F0F0FFFFFFFF7F7F7F7F7F7F0F0F78
:10258F000F0F0F0F0F0FCFFFFFFFFF1F00000000F8
:10259F00000000000080F0FCFFFF3F0F0300000071
:1025AF000000000080E0F8FEFFFF1F0701000000A1
:1025BF000000FEFFFFFFFF0F0F0F0F0F0F0F0F0F8B
:1025CF00FFFFFFFFFEC3E7E7F7FF7E3E3E3C1C3CED
:1025DF003E3E7EFFF7E7E7C37FFFFFFFFFF0F0F020
:1025EF00F0F0F0F0F0F0FFFFFFFF7FFEFFFFFFFFC7
:1025FF000F0F0F0F0F0F0F0F0FFFFFFFFFFE1F3FED
:10260F003F3F3F3C3C3C3C3C3C3C3C3CFFFFFFFFE6
:10261F00FF7EFEFEFEFEF0F0F0F0F0F0F0F0F0FFC7
:10262F00FFFFFF7FFEFFFF0F0707070FFFFFFE7F75
:10263F00FFFFF0E0E0E0F0FFFF7F0000181C1EFF3F
:10264F00FFFF0000000000000000FFFFFF00000080
:10265F001E1F1F070787C7E7FF7F3EF0F8FCFEEF3F
:10266F00E7E3E1E0E0E00E0F0F070787C7EFFF7F1B
:10267F003E70F0F0E0E0E1E3F7FFFE7CC0E0F078C1
:10268F003C1EFFFFFF00001F1F1F1C1C1CFFFFFF36
:10269F001C1CFFFFFFC7C7C7C7C7C7870771F1F16B
:1026AF00E1E1E1E1F3FF7F3FFEFFFF8F8787878740
:1026BF008F8F0E7FFFFFE3E3E3E3E3FFFF7F0F0F58
:1026CF000F07070787C7FFFF7FE0F0783C1E0F0754
:1026DF00030100007EFFFFC7878787C7FFFF7E7E4E
:1026EF00FFFFE3E1E1E1E3FFFF7EFEFFFFC7C7C7A7
:1026FF00C7C7FFFFFE78F9F9E1E1E1E1E1FFFF7FF5
:10270F0000F8F8F8F80000C3C3C3C300001F1F1F71
:10271F001F00FF2341FF2345FF2349FF234DFF23C5
:10272F0051FF2355FF2359FF235D067B85BCA495DD
:02273F007B0617
:101D9F004111890044119200000000421196000089
:041DAF004111990045
:104E4900F91213C375F00A84E5F02430FF900F9826
:104E5900E0FBA3E0FAA3E0F922900F9B7401F0A311
:104E69007411F0749AA3F07B017A0D795A2290009B
:104E7900051213C39010CBF09000060213C3EF1272
:104E89001402900F9B22900F96F090119BE075F001
:104E99000A84900F9E22900FB77401F0A3740DF04D
:104EA900A3745AF022EBF0A3EAF0A3E9F022EFF0A1
:104EB900900F95E0FBA3E0FAA3E022900FB47407EA
:104EC900F022EEF0EF75F00A84AFF0ED75F00A8488
:104ED900E5F022FFE02FF0E0D3227F027E007D0083
:104EE9007C00229000050213C3EFF09010A174FF1B
:104EF900F0A3227B017A11799A22FFE02FF0E0D307
:104F090022FF75F00A84FEE0FD75F00A846E229096
:104F19001162E0FCA3E0FDA3E0FEA3E0221213C3AB
:104F290075F00A8422900FABE0FFA3E0FD900FA378
:104F3900229010CCF0E4A3F022E5F0F0A37409F07C
:104F490022900F97E02FF0900F96E022900F98E0B3
:104F590004F022FFE02FF0E0D322900F96E0FFC388
:044F6900743C9F22D3
:10004600EF1FAC0670011E4C600A7D207C24DCFE8E
:04005600DDFC80EC61
:01005A002283
:0F782C00EFC4540F75F00AA4FEEF540F2EFF2285
:1077EE00EF75F00A84C454F0FEEF124ED52EFF2230
:1057EA00900FAF124EAE1278557FD0126D0D7F0119
:1057FA007E00120046E4FF126D0D1278557FD11219
:10580A006D0D12589F124E59EF1213F012589F1233
:10581A004E5990000112587F124E599000021258A8
:10582A007F124E5990000312588F124E599000045D
:10583A0012588F124E59900005EF1214027F01126E
:10584A006BFC12782C900FAF124E59900006EF1293
:10585A0014029000021213C375F03CA4FF900001D9
:10586A001213C37C002FFFEC35F09000078FF01263
:10587A0014EF027739EF121402E4FF126BFC12786C
:10588A002C900FAF22EF121402E4FF126BFC127875
:10589A002C900FAF22E4FF126BFC12782C900FAF02
:0158AA0022DB
:105DD900900F96124EAE1278557FD0126D0DE4FFDA
:105DE900126D0D900F96124E591213AA125E51128E
:105DF9004E59900001125E35124E59900002125E02
:105E090035124E59900003125E43124E5990000408
:105E1900125E43124E59124EEC125E51124E591235
:105E29004E81FF1277EE126D0D0277391213C3FFFF
:105E39001277EE126D0D900F96221213C3FF12778F
:105E4900EE126D0D900F9622FF1277EE126D0D90E6
:035E59000F96227F
:107604009011DFEFF07D107FD012747C9011DFE0D9
:097614002FFB7D107FD002761DD2
:104BE300900F98124EAE124E5674321213F0124EAC
:104BF300569000017430124E88124E59124E817530
:104C0300F00A84124E53900002124E87124EBC904B
:104C13000006124E49900003EF1214029000047430
:104C23002D124E88124E59124EEC75F00A84124E14
:104C330053900005124E87124EBC900005124E4948
:104C4300900006EF121402900007742D124E881282
:104C53004E59900004124F26124E53900008124EE4
:104C630087124E59900004124E4A900009EF121415
:104C73000290000A7420124E88124E5990000312BB
:104C830013C3124E5390000BEF12140290000C74D6
:104C930020124E88124E59900002124F26124E5384
:104CA30090000D124E87124E59900002124E4A90F8
:104CB300000EEF12140290000F743A124E88124E37
:104CC30059900001124F26124E53900010124E8736
:104CD300124E59900001124E4A900011EF12140225
:104CE300900012743A124E88124E591213AAFF758D
:104CF300F00A842430FE124E56900013EE12140272
:104D0300EF124ED52430900014121402900015E4D3
:034D130002140285
:104D1600E4900F96F0A3124E80FF9011D4E0FED3DC
:104D26009F4041EFFDEE9DFFE49400FE7C017D6D0A
:104D3600121424124F4A3E124E80900F98F0901192
:104D4600D4E0FF900F98E0FEC39F5018EE54037016
:104D56000E900F97E004F07006900F96E004F012A4
:104D66004F5580DA124EECFF9011D5E0FEEFC39E50
:104D76005047900F98EFF09011D5E0FF900F98E014
:104D8600C39F4003024E10E0FF9023D793FD900F80
:104D960097E02DF0900F96E03400F0EFB402151274
:104DA6004E815403700E900F97E004F07006900F3A
:104DB60096E004F0124F5580BE124EECD39E404A48
:104DC6009011D5E0900F98F0124EECFF900F98E0FE
:104DD600FEC39F5035EE9023D793FFC3900F97E005
:104DE6009FF0900F96E09400F0900F98E0B40215B3
:104DF600124E815403700E900F97E024FFF0900F2F
:104E060096E034FFF0124F5580BE9011D6E0FF12A7
:104E16004F4A3400F09000041213C3FFC3900F975B
:104E2600E09FFF900F96E09400FEF0A3EFF0C3EE34
:104E3600648094805004E4FEFF22900F96E0FEA367
:024E4600E0FF8B
:014E48002247
:064F6D00900FA3124EAEEE
:104F7300900FA3124E59124E81FF124EEC8FF0A4E4
:104F8300AEF07803CEC313CE13D8F9900FA6F090EA
:104F930000071213C3900FA7F09000081213C3FF6A
:104FA300900FA6E0FEEF8EF0A4FFAEF09000021289
:104FB300169AE92FF9EA3EFA900FA8124EAE900F17
:104FC300A3124E591213AA900FABF09000011213C3
:104FD300C3900FACF090000A1213C36009900FA79F
:104FE300E06003F47017124F2E124E59124E7712CF
:0D4FF3004F3AA3F0900FA8124E59025087BC
:10500000900FA3124E599000081213C314FF900F73
:10501000ADF0BFFF0A9000091213C3900FADF090DE
:105020000FACE0FD900FA3124E59124E77FE124FB7
:105030003A900FA7E0C39E24FC9010CEF0900FA8EA
:10504000124E59A3E0FF12402D900FA3124E59901B
:10505000000212169A900FA6E0FF900FADE08FF0BD
:10506000A429F9EA35F0FAC003C002C001124F2E9C
:10507000124E59124E77124F3A900FA7E09010CE71
:0A508000F0D001D002D00312402D41
:01508A002203
:1038A300901191E0FF90119AE06F700302393BE4AD
:1038B300901187F0A3F0A304F090118FE090119C76
:1038C300124F0A60047E0180027E0090118A124E1C
:1038D300CB6F60047F0180027F0090118BEFF0902B
:1038E3001190E090119B124F0A60047E0180027ECA
:1038F3000090118C124ECB6F60047F0180027F0019
:1039030090118DEFF0901191E075F00A84FF901102
:103913009AE0FE75F00A846F60047F0180027F00E5
:1039230090118EEFF090119CE090118FF090119B0D
:10393300E0901190F0A3EEF0901189E0700302394A
:10394300E6901187E0FFD394035002802FEFD394C6
:103953000650028015EFD394105009901187E0248C
:1039630005F0801BEFD394165009901187E02403D0
:10397300F0800CEFD3941C5006901187E004F09074
:103983001187E0C3941C400374FFF0901188E0FF9B
:10399300D3940150028018EFD3940D5009901188ED
:1039A300E02403F0800CEFD394145006901188E0C8
:1039B30004F0901188E0C39414400374FFF0901155
:1039C30088E0D39414401C901187E0D3941C4013D7
:1039D300E4F0A3F0A3F0FE7F05FD7B017A11798A61
:1039E300121898900F967468F0A3741CF0A374FFD8
:1039F300F0A37426F0A37433F0A3740BF0A3741034
:103A0300F0901188E0900F9DF090119A124E96F06D
:103A1300A37405F090118E123B8D900F967474F081
:103A230090119A124E96124F42901189123B8D902B
:103A33000F977414F0900F9B14F0A37418F0900F69
:103A43009874FFF0A37423F0A374F9F0901187E046
:103A5300900F9DF0743C124E8FF0A37405F09011FB
:103A63008C123B9C7453124E8F124F4290118D1245
:103A73003B9C900F967401F090119C124E96F0A30C
:103A83007405F090118A123BAB900F967418F09066
:103A9300119C124E96124F4290118B123BAB7BFF3F
:103AA3007A27790F9010CB7406F0A37418F0E4A36F
:103AB300F0A3F07D147F3112402D124EF47423F0E5
:103AC300A37461F09011A0E09010A4F090119FE016
:103AD3009010A5F090119EE09010A6F090119DE03B
:103AE30075F003A42421F582E43427F583E493F9E4
:103AF300740193FA7402939010A7C9F0A3EAF0E952
:103B0300124E6E123248124E70E4FD7F151269ADEB
:103B1300126B70900FA1EEF0A3EFF07BFF7A277981
:103B2300399010CB7408F0A3F0E4A3F0A3F07D3731
:103B33007F1812402D124EF47423F0A37478F09082
:103B43000FA1E0FCA3E0FDEC9010A4F0ED124E6E8B
:103B5300123248124E707D077F221269AD9011A96F
:103B6300E0640260069011D7E070087BFF7A237946
:103B730084800D9011A9E0B4010D7BFF7A2379882D
:0A3B83007D077F401269AD02595F13
:103B8D00E0900FA0F07B017A0F7996124F6D22E035
:103B9D00900FA0F07B017A0F7996124F6D22E09075
:0D3BAD000FA0F07B017A0F7996124F6D2268
:10354800C205300623C2061278D29011D7E0601562
:103558009011A9E07005127668800A9011A9E0B46C
:103568000103124AAF1252A6901199E07013C28E4D
:103578001276B1124EFC1257EA1238A3126BB780BA
:103588003D901199E0640170357B017A1179A3129D
:10359800564D124EFC124D169010A4EEF0A3124E8A
:1035A800F27423F0A3748DF07A0D795A1232489090
:1035B8000FB7124EA27B30E4FD7F04126F409011CA
:1035C80066E06019E4F0901199E0B401101276C732
:1035D8007F1E124EE5127163E4901199F090117EEE
:1035E800E06009E4F0D28E90119904F090117FE028
:1035F8006005E4F012508B901175E06005E4F0D29C
:103608008E22901167E07003023548E4F07F0112C2
:1036180078ECC28E124EC47B17E4FDFF12771E129F
:1036280076C7D28E124EFC1257EA124E62124BE344
:10363800124E9F1238997F32124EE5127163901123
:1036480092E0F8A3E0F9A3E0FAA3E0FB124F18C355
:103658009BFFEE9AFEED99FDEC98FCE47B1EFAF9CF
:10366800F8C312163950D7124F18FF90119212163C
:103678005D901176E0601AE4F0901196E07002A374
:10368800E0600E901197E024FFF0901196E034FF6F
:10369800F0901175E07003023758E4F0901197E04C
:1036A80004F07006901196E004F0901196E0700412
:1036B800A3E064076003023758901196F0A3F07BEB
:1036C80001900F9B04F0A37411F0A3749AF07A0D83
:1036D800795A124BE3C28E900FB4742FF07B6C7D35
:1036E8002D7F1412771E30B3FD30B4FA30B2F79044
:1036F8000FB774FFF0A37423F0A37499F0E4FB7D73
:103708001E7F03126E12124E9F7B23E4FDFF126E82
:1037180012D28E7F14124EE512716320B2169011E8
:10372800787401F0C28E1276C7124EFC125DD9D29F
:103738008E02354820B3109011817401F0C28E12A8
:1037480076C7D28E02354820B4D19011697401F041
:10375800901168E0B40106A37401F0801490118000
:10376800E0B4010CA37401F090119874FFF0800587
:10377800E4901198F0901196E0FEA3E0FFEE60034C
:10378800023888EFB40700400302388890379BF866
:103798002828730237B00237CB0237F102381702F4
:1037A800383302384E023869901198E09011A0120F
:1037B8004EDC94634002E4F0124EC47B17E4FDFF34
:1037C800023885901198E090119F124EDC940C40BD
:1037D800037401F090119FE07003740CF0124EC452
:1037E8007B29E4FD7F1D023885901198E090119E99
:1037F800124F03941F40037401F090119EE0700370
:10380800741EF0124EC47B3BE4FD7F2F0238859076
:103818001198E090119D124F03940740037401F032
:10382800124EC47B47E4FD7F418052901198E0908E
:10383800119C124F5C94174002E4F0124EC47B595D
:10384800E4FD7F4D8037901198E090119B124F5CFA
:10385800943C4002E4F0124EC47B6BE4FD7F5F8031
:103868001C901198E0FF90119AE02FF0E0D3943C5F
:103878004002E4F0124EC47B7FE4FD7F7312771E92
:10388800124E62124BE3C28E124E9F1238990236C4
:0138980046E9
:0A389900E4FBFDFF126E12D28E2236
:104AAF00900F967463F0E4A3F07BFF7A2379A4123E
:104ABF00695E7BFF7A2379AB12695E124EFC125747
:104ACF00EA124E62124BE3124E7012695EE49011BD
:104ADF0066F090117EF0D2057BFF7A2379B41269CC
:104AEF005E127668124BC7E06F6026124BC7124EEC
:104AFF00F27423F0A374BBF0C3743C9F124E6E127A
:104B0F003248124E70E4FF1273BA124F636406609C
:104B1F0012901166E0B40103024B96124EE312712C
:104B2F006380C11276C77F207E031266F9124BD5C0
:104B3F00E06F604C124BD5EFF06068900F97E0FF7D
:104B4F0012781D900F97E0045401FFF0C007900FEB
:104B5F009B7420F0A37440F0124F63FFEF7F00FEB1
:104B6F00EF2486F974023EFA900F9D74FF124EAF38
:104B7F00D007E4FB7D2F1259FB7F207E031266F9CD
:104B8F00901166E0B40113E4F090117EF07BFF7A90
:104B9F002379C5FF1273BAC20522124EE312716355
:104BAF00024B3C7F407E061266F9C2051276C77F24
:074BBF0019124EE5127163AB
:104BC60022E4FD7FD012747C12782C900F9622E49A
:0D4BD600FD7FD012747C12782C900F962277
:106A9500900F95124EAEEF640360037F0122124EF4
:106AA500B92410126AD99011D4124EB72420126A53
:106AB500D99011D5124EB72430F9E43AFA1268622A
:106AC5009011D6EFF012764F7BFF7A2379CA1269BF
:0C6AD5005E7F0022F9E43AFA12686222A7
:1070FC00436865636B696E67204949432E2E2E00E9
:10710C00466F756E643A3078253278004E6F205396
:10711C00756368204465766963650030782532783C
:04712C00004F4B00C5
:106C4100F0900F95E0FBA3E0FAA3E0221277D8C2FF
:106C5100A50277D8EBF0A3EAF0A3E9F0229010A106
:106C610074FFF0A37471F0A37427F0227BFF7A7193
:106C7100791822E4F0A3EFF0E0F8E4F0E822243000
:056C8100F9E43AFA22DB
:0B77CD001277D81277D8D2A51277D817
:0577D800007F40DFFE10
:0177DD002289
:0D785500D2A41277CDC2A41277D80277D842
:077732007F01126BFCAE07A2
:0D773900C2A41277CDD2A41277D80277D85F
:026D0D00AE07CF
:106D0F00C2A51277D8E4FD1277D8EE30E704D2A4EB
:106D1F008002C2A4126C4DD2A51277D8EE25E0FEE8
:106D2F00126C4D0DEDB408DFD2A4D2A57DFF30A4B7
:106D3F0002DDFBA2A4920BC2A5D2A4A20BE433FFE7
:016D4F002221
:026BFC00AE07E2
:106BFE00E4FDD2A4126C4DFCD2A51277D8ED25E09F
:106C0E00FD1277D8A2A4E4334DFD126C4D0CECB4FA
:106C1E0008E61277D81277D81277D81277D8EE24E2
:106C2E00FF92A41277D8D2A5126C4DD2A41277D8A7
:026C3E00AF05A0
:016C40002231
:04747C00AC07AB05A9
:10748000E4FE127855AF04126D0DAF03126D0D12AC
:0E7490007855EC4401FF126D0D127732AF06F5
:01749E0022CB
:10761D00AE07AC05127855AF06126D0DAF04126DA5
:09762D000DAF03126D0D02773957
:02774600AE078C
:10774800E4FD127855AF06126D0DAD07127739AF0B
:01775800052B
:01775900220D
:0963A800900F95EFF0A3126C5563
:1063B1001275D07BFF7A7079FC12695EE4900F99B7
:1063C100F0900F99E0FFC3947F504AEF25E0FF1250
:1063D1007746EF70389010A174FFF0A37471F0A3A9
:1063E100740CF0900F99E09010A4F07B017A0F7972
:1063F1009A123248E4900FA5F07B017A0F799A1234
:10640100695E901166E060FAE4901166F0900F9970
:07641100E004F080AC7F0005
:016418002261
:0661CA00900F95126C55C8
:1061D000EF640260037F0122900F95126C4524103A
:1061E000F9E43AFA126637900F9FEFF0900F95128C
:1061F0006C452420F9E43AFA126637900FA0EFF0CC
:10620000900F9FE025E0FF127746EF6009126C6D5A
:1062100012695E7F0322900F9FE025E0FFA3E0FD5F
:1062200012747C126C5EA3EFF07B017A0F799812E6
:106230003248E4900F9CF07B017A0F799812695EE6
:026240007F00DD
:016242002239
:06624300900F95126C554E
:10624900EF640360037F0122900F95126C452410BF
:106259001262B4900F98EFF0900F95126C452420BC
:106269001262B4900F99EFF0900F95126C45126C71
:106279007F126637900F9AEFF0900F98E025E0FFB4
:10628900127746EF6009126C6D12695E7F032290E6
:106299000F98E025E0FFA3E0FDA3E0FB12761D7B4C
:0A62A900FF7A71792D12695E7F0003
:0962B30022F9E43AFA12663722DE
:0658AB00900F95126C55F0
:1058B100EF640360037F0122900F95126C45241061
:1058C100125957900F9FEFF0900F95126C452420BD
:1058D100125957900FA0126C74900FA0F0900F9571
:1058E100126C45126C7F126637900FA1E02FF09079
:1058F1000FA0E03400F0900F9FE025E0FFF0127759
:1059010046EF6009126C6D12695E7F0322127855B1
:10591100900F9FE0FF126D0DA3E0FF126D0DA3E04C
:10592100FF126D0D127855900F9FE04401FF126D2B
:105931000D127732126C5EAF06A3EFF07B017A0F86
:105941007998123248E4900F9CF07B017A0F799894
:0559510012695E7F00F9
:0959560022F9E43AFA1266372244
:065A9600900F95126C5503
:105A9C00EF640460037F0122126C422410125B1924
:105AAC00900F98EF126C412420125B19900F9912F1
:105ABC006C74900F99126C41126C7F126637900FB8
:105ACC009AE02FF0900F99E03400126C412440F9C9
:105ADC00E43AFA126637900F9BEFF0900F98E0259E
:105AEC00E0FF127746EF6009126C6D12695E7F035E
:105AFC0022127855900F98125B21A3125B2112771A
:0C5B0C00397BFF7A71792D12695E7F00F1
:105B180022F9E43AFA12663722E0FF126D0DA3E08B
:055B2800FF126D0D22CB
:106AE100FF81BD8181818181818181818181FF3CA2
:106AF100FF81BDBDBDBD8181818181818181FF3CDE
:106B0100FF81BDBDBDBDBDBDBDBD81818181FF3CDD
:106B1100FF81BDBDBDBDBDBDBDBDBDBDBD81FF3C19
:086B21000010189C72301000F6
:10763600900FA6E0F8A3E0F9A3E0FAA3E0FB2290FE
:097646000FA5E0FF1275EAE42231
:1075EA00EF44C0F5BC00000000E5BC30E5FB53BC2D
:0975FA00DFAFBDEFFEADBEEDFFF9
:017603002264
:065E5C00900FA5EFF0FB22
:105E6200A312166900000000E4F5BDAF031275EA43
:105E7200127645900FAAF0127636127645FCFDEBAB
:105E82002FFFEA3EFEED39FDEC38FCA312165D90C1
:105E92000FAAE004F0E0C3940840DC900FA6E0FCF7
:105EA200A3E0FDA3E0FEA3E0FF780312164A900FE1
:105EB200A612165DE47FC87E19FDFC127636121515
:105EC2001CE4FB7A10F9F81215A7900FA612165DC2
:0A5ED200900FA6A3A3E0FEA3E0FFDB
:015EDC0022A3
:10595F007F07125E5C900FA3EEF0A3EFF030C171E2
:10596F00D3E0943C900FA3E0940F40087BFF7A6B39
:10597F0079118049D3900FA4E09474900FA3E09411
:10598F000E40087BFF7A6B79018032D3900FA4E031
:10599F0094AC900FA3E0940D40087BFF7A6B7901D4
:1059AF00801BD3900FA4E09448900FA3E0940D7B3D
:1059BF00FF40067A6A79F180047A6A79E19010CB18
:1059CF007410F0A37408F0E4A3F0A3F07D37FF8008
:1059DF00177BFF7A6B79219010CB7408F0A3F0E45A
:0B59EF00A3F0A3F07D377F0612402DCF
:0159FA00228A
:105CD100696963636865636B0069696372656164BF
:105CE10000696963777269746500696963726561E6
:105CF10064313600696963777269746531360065AC
:105D01006E73657269616C00666C61736870726F45
:105D110067006D6172696F00646561646C696E65CD
:105D210000616C61726D00535443205465726D695A
:105D31006E616C0000D5D2B2BBB5BDC3FCC1EE2E05
:105D410000B2CECAB4EDCEF32E00CEB4D6AAB4EDD5
:045D5100CEF32E005F
:101DB3004110E500C1184110E4085E1104FF5CD135
:101DC300FF5CDAFF5CE2FF5CEBFF5CF5FF5D00FFAD
:101DD3005D09FF5D13FF5D19FF5D225E10E6FF6382
:101DE300A8FF61CAFF6243FF58ABFF5A96FF78A969
:0C1DF300FF5199FF5576FF6A95FF675776
:105EDD009010E5E0FF90109EE0FBA3E0FAA3E0F93F
:105EED0022EFF0A3EBF0A3EAF0A3E9F02290103A31
:105EFD00E0C454F0249AF582E4340FF583E5822250
:105F0D00E0FBA3E475F0011214A1A9F0FA0213AAA3
:105F1D00900F9CE0FEA3E0FF121424900F9CEEF076
:105F2D00A3EFF0229010E5E0FF900FB1E0F9A3E0B0
:105F3D00FAA3E0222FF582E43583F58322900F9B9F
:105F4D00E0FF1276DD900F9C227B017A11792E22D3
:0978C9001276C7E49010E5F022EC
:05000600A20A9218227D
:0678F2009010E4EFF0220B
:1076DD009010E4E0FEA3E02E04C39FFDEE04FFED49
:0576ED008FF084AFF0F6
:0176F2002275
:10695E0090109E125EF19010E5E070089010E4E049
:10696E00A3F080069010E5E014F0C28E9010E5E0E2
:10697E00FF7B3FE4FD126E4F125EE2127681400302
:10698E00301808125EDD1248378006125EDD126086
:0F699E00589010E5E0FF1278E4127522D28E2295
:1064F600900FB1125EF1C28E9010E5E0FF7BF8E4DA
:10650600FD126E4F900FB1125EE512768140033098
:106516001813125F31900FB7C9125EF27BF0E4FDDB
:10652600126F408011125F31900FB7C9125EF27B75
:10653600F8E4FD126E129010E5E0FF1278E4127492
:10654600C1D28E9010E5E004F09010E4E02401FF43
:0E655600E433FEA3E0B50705E4B50601F0222C
:1073BA00900F9B125EEEC28E127681400330180B3C
:1073CA00125F4A125EE51248378009125F4A125E5E
:0773DA00E5126058D28E227B
:06572300900F97125EF1E9
:10572900E490103AF0FF804490103BE0FE640A6078
:1057390048EE60456420701C125EFA125F41E4F085
:10574900EF600D90103AE004F0E0B40A037F012203
:10575900E4FF801890103BE0FEAD070F125EFA2DB2
:10576900125F42EEF0EFB40F037F0122900F971200
:105779005F0D90103BF0025731125EFA125F41E45F
:10578900F090103BF090103BE0FFC3940A504FEFAC
:1057990075F003A42404F582E43411F583125EE55F
:1057A900789A7C0F7D0112187BEF702A90103AE0ED
:1057B900FF7B017A0F799AC002A3E075F003A42454
:1057C900E6F582E43410F583A3E0FAA3E0F5828AD2
:1057D90083D0020216CE90103BE004F080A77F022E
:0157E900229D
:106FB600901127E0FE04F0742E2EF582E43411F5CC
:106FC60083EFF0901127E0B43202E4F0901127E04D
:106FD600242EF582E43411F583E4F0D209EFB40AE5
:096FE60007E4901127F0D2082203
:10508B001278C912518DD204D2007BFF7A5D792838
:10509B0012695E12516412516412516E7F011278C3
:1050AB00EC300948C209125F56127709D3EF9414FA
:1050BB00EE9400400C741A2FF974113EFA7B0180A8
:1050CB0003125F56E4FF1273BAE4FF1276DD127817
:1050DB0086C007E4FF1276DD127886EF2405FB907D
:1050EB000FB4743FF0D0077D3812771E300857C2CB
:1050FB000812517EC2041275D0125F5612572390BC
:10510B000F96EFF0BF02097BFF7A5D793612695E6D
:10511B00900F96E0B401097BFF7A5D794212695ECC
:10512B00900F96E0B403097BFF7A5D794B12695EB1
:10513B00900F96E0640460147BFF7A5D79351269F9
:10514B005ED20412516E3004030250AC1275D012B1
:08515B0076C712517E12518D3E
:10516300227BFF7A5D793512695E22900FB4743F1A
:10517300F07B057D37E4FF12771E22900FB4744055
:10518300F07B04FDE4FF12771E227F1E7E007D006C
:065193007C001271632292
:067310009011D9125EF19C
:107316001213AAB46D0A9011DAE475F00112148BF7
:107326009011D9125F0DFF600A24D0D3940940F062
:057336007F00227F0131
:01733B00222F
:06686200900F99125EF197
:10686800E4A3F0A3F0C20A1213AAB46D0C900F9A15
:10687800E475F00112148BD20A900F99125F0DFB88
:10688800601A7C007D0A125F1DEB24D0FFE434FF00
:10689800FEE02FF0900F9CE03EF080DD300A077C90
:0E68A800FF7DFF125F1D900F9CE0FEA3E0FF3E
:0168B60022BF
:106637001213AAFFC39461400CEFD394665006EF80
:1066470024A9FF8015EFC39430400CEFD394395041
:106657000674D02FFF80037F0022AE07EEC454F0EC
:10666700FE9000011213C3FFC39461400CEFD39453
:10667700665006EF24A9FF8015EFC39430400CEF56
:10668700D39439500674D02FFF80037F0022EF2E5A
:01669700FF03
:0166980022DF
:0B78A900900F95125EEED2007F0022CF
:104976002E2D002D2E2E2E002D2E2D2E002D2E2EE0
:10498600002E002E2E2D2E002D2D2E002E2E2E2EFC
:10499600002E2E002E2D2D2D002D2E2D002E2D2EEF
:1049A6002E002D2D002D2E002D2D2D002E2D2D2EE1
:1049B600002D2D2E2D002E2D2E002E2E2E002D00FC
:1049C6002E2E2D002E2E2E2D002E2D2D002D2E2E90
:1049D6002D002D2E2D2D002D2D2E2E002D2D2D2D85
:1049E6002D002E2D2D2D2D002E2E2D2D2D002E2E73
:1049F6002E2D2D002E2E2E2E2D002E2E2E2E2E005E
:104A06002D2E2E2E2E002D2D2E2E2E002D2D2D2E22
:104A16002E002D2D2D2D2E00FF4976FF4979FF49B9
:104A26007EFF4983FF4987FF4989FF498EFF4992E7
:104A3600FF4997FF499AFF499FFF49A3FF49A8FFEE
:104A460049ABFF49AEFF49B2FF49B7FF49BCFF4931
:104A5600C0FF49C4FF49C6FF49CAFF49CFFF49D332
:104A6600FF49D8FF49DDFF49E2FF49E8FF49EEFF6C
:104A760049F4FF49FAFF4A00FF4A06FF4A0CFF4A7B
:104A860012FF4A186162636465666768696A6B6CDF
:104A96006D6E6F707172737475767778797A30315E
:094AA6003233343536373839005B
:101DFF006032112E00000000000000000000000003
:101E0F0000000000000000000000000000000000C3
:101E1F0000000000000000000000000000000000B3
:101E2F00000000000000461128000000000000C163
:101E3F009941112700411126004411220000000092
:1070C7007F64E4901179FEFDFCE0F8A3E0F9A3E00A
:1070D700FAA3E0FBC3021639E0242EF582E434114B
:1070E700F58322901126E0FF04F074282FF582E43F
:0570F7003411F58322B5
:01000E0022CF
:01000F0022CE
:105C4700901126E024281270F4E4F09010E1F0900F
:105C570010E1E0FFC394245068EF75F003A4241EFD
:105C6700F582E4344AF583E493FB740193FA7402F2
:105C770093F978287C117D0112187BEF703A901008
:105C8700E1E0904A8A93FF901127E0FE04F0742E1A
:105C97002E1270E2EFF0901127E0FFB4320C127071
:105CA700E0E4F012000E901127F0E4901126F0A323
:105CB7001270DFE4F0D209229010E1E004F0025CF8
:095CC7005612000FE4901126F0C2
:015CD00022B1
:1053A20020B219901122121669000000001270C773
:1053B200600302546BD208901127F022E47F01901F
:1053C20011221270CD702BFF1270CA601A7F141254
:1053D20070C950081270EA742EF0800B1270C75018
:1053E200061270EA742DF0901126E06406705BF0EC
:1053F2008058E47F28FEFDFC9011221270D07017B5
:10540200901126E0FF601024281270F4E4F0125C80
:1054120047E4901126F022E47FC8FEFDFC901122A1
:105422001270D07025901127E0FF04F0742E2F1215
:1054320070E27420F0901127E0FF1270E0E4F0EFC8
:10544200B43205E4901127F0D209901122E0FCA3B6
:10545200E0FDA3E0FEA3E02401FFE43EFEE43DFD07
:10546200E43CFC90112212165D901166E0B4011228
:10547200E4F0901127E0601514F01270DFE4F0D22E
:0E5482000922901167E0B40104E4F0C2042294
:104405004D61746800D3EFCEC400D3A2D3EF00D5BD
:10441500FED6CE00C0FACAB700B5D8C0ED00C9FABD
:10442500CEEF00CEEFC0ED00BBAFD1A700D7D4CF04
:10443500B000502E452E00B0E0BBE100D2F4C3C061
:1044450000D0C2BDA8BFCEB3CC0044656C65746511
:1044550000B8F1CABDBBAF00B8FCD0C2525443008E
:1044650053657269616C0000CFECD2BBC9F900B528
:10447500B9BCC6CAB100BEB2D2F4002530326275ED
:104485003A25303262752D25303262753A25303243
:10449500627500C7EBD1A1D4F1BFC6C4BF00C7EB9D
:1044A500D1A1D4F1D0C7C6DA00C9CFBFCECAB1BC3D
:1044B500E428CAB12900C9CFBFCECAB1BCE428B728
:1044C500D62900CFC2BFCECAB1BCE428CAB12900E3
:1044D500CFC2BFCECAB1BCE428B7D62900C9E8D639
:1044E500C3CCE1D0D100CAC7B7F1B1A3B4E6A3BF2D
:1044F50000B1A3B4E6B3C9B9A600B1A3B4E6CAA78F
:10450500B0DC00BFCEB3CCB1ED00CAC7B7F1C9BEB0
:10451500B300C8B7C8CFA3BF00B3C9B9A6005254EA
:104525004320D2D1B8FCD0C200B0B4CFC2C9CFBCF1
:10453500FCCDCBB3F600C4D6D6D3D2D1C9E8D6C309
:1045450000FF4405FF440AFF440FFF4414FF4419CC
:10455500FF441EFF4423FF4428FF442DFF4432FF40
:104565004437FF443CFF4441000000FF4446FF44FC
:104575004FFF4456FF445DFF4465FF446CFF446DA7
:06458500FF4474FF447BBB
:041E4F004111AB0092
:10549000F583E493F9740193FA740293900FB7C9FA
:1054A000F0A3EAF0A3E9F022900FA912165D900F85
:1054B000A9E0FCA3E0FDA3E0FEA3E02275F003A4B5
:1054C0002446F582E43445F583E493FB740193FAB2
:1054D00074029322900FA2E0FBA3E0FAA3E022E083
:1054E000FF900F96E0FD7B017A0F7998221214B796
:1054F000FBAAF0FF7C007D3CAE02021436FF7E006A
:10550000EEF0A3EFF07C007D3C021424900FB1E09C
:10551000FFC3900FB0E09FFF900FAFE09400FE7CC0
:10552000007D3C0214362400FFEE3410FEED3404FE
:10553000FDE43CFC22FFE4FB7A10F9F802151C9014
:105540000FA612165D900FA622F98F8275830002B6
:1055500013C37B017A1179AC22E0F9A3E0FAA3E04E
:10556000227B007A00790022900F96EFF0F42290CF
:065570000F96E004F0229A
:107599001278557FD0126D0D7F0E126D0D300A04D1
:0C75A9007F5580027F54126D0D0277396F
:107285001278557FD0126D0D7F0E126D0D12785547
:107295007FD1126D0DE4FF126BFC9011E0EFF0123F
:0E72A50077399011E0E030E0037F01227F0096
:0172B30022B8
:106B7000900FA3E4F0A374FFF01278557FD0126D4C
:106B80000D7F08126D0D1278557FD1126D0DE4FF47
:106B9000126BFC900FA3E4F0A3EFF0E4FF126BFC88
:106BA000EFFE900FA3E04EF0A3E0F0127739900FC4
:066BB000A3E0FEA3E0FFDC
:016BB60022BC
:105F5D00900FAFEEF0A3EFF0A3EDF01278557FD0D8
:105F6D00126D0D7F07126D0D900FB1E0700BFF12CA
:105F7D006D0DE4900FB1F08022900FB1E075F03C03
:105F8D0084AFF0EFF075F03C84C3743C95F0FF12D4
:105F9D0077EE126D0D900FB17401F0900FAFE070B0
:105FAD0002A3E07008FF126D0DE4FF801112550C75
:105FBD00AF051277EE126D0D12550C1277EE126DB4
:0E5FCD000D7F80126D0D127739D20A02759980
:0978D200E4FB7D0F7FD002761D5E
:10564D00900FA2EB1254A0E4900FB4F0FBFDFF12EB
:10565D00771E1254D4F99000011213C375F003A4F0
:10566D002446F582E43445125490E4FBFDFF126F9D
:10567D00409010A174FFF0A37444F0A37480F01255
:10568D0054D4F99000021254ED9010A4EFF0AF0332
:10569D001254F4A3EDF0900FA2E0FBA3E0FA9000FA
:1056AD00041254ED9010A6EFF07C007D3CAF03AEDC
:1056BD0002121436A3EDF07B017A0D795A1232489D
:1056CD00900FB77401F0A3740DF0A3745AF07B0F13
:1056DD00E4FD7F01126F401254D4F99000061213AD
:1056ED00C375F003A42482F582E434451254907BF3
:1056FD001FE4FD7F02126F401254D4F91213AA75E4
:10570D00F003A424E1F582E43423125490E4FB7DEC
:06571D00407F03026F4013
:076E8C00900FA6EB1254A0C9
:106E9300E4FCFDFEA31254AB1255351254A812554F
:106EA300261254A8FF12757D9010A21216690000D5
:106EB3000008900FA61255599010A612549F125411
:056EC300AEFF0260D4E7
:076A4800900FB5EB1254A002
:106A4F00E4FCFDFEA312165D900FB81254B112555F
:106A5F0035900FB812165D900FB81254B11255261B
:106A6F00900FB812165D9010B4121669000000084E
:106A7F00900FB51255599010B812549F900FB8122D
:066A8F0054B1FF026699FC
:10750200E4FCFDFE12553F1254B112553512553F9F
:107512001254B112552612553F1254B1FF02757D15
:07736700900FA6EB1254A0E9
:10736E007F01900FA91254D7125549FE900FA61205
:10737E0054D71255496E60037F01220FEFB408E215
:02738E007F007E
:0173900022DA
:076EC800900FA2EB1254A091
:106ECF00E4A3F0900FA5E0FFF46027125552126A69
:106EDF00489011ACE0B4FF12900FA5E0FF900FA205
:106EEF001254D7F9126E8C7F0022900FA5E004F098
:046EFF0080D17F01BE
:016F0300226B
:076D5000900FA2EB1254A00A
:106D5700E4A3F0900FA5E0FFF4602E125552126ADB
:106D670048900FA2125559900FA912549F125552CD
:106D7700127367EF700B900FA5E0FF1275027F008B
:0B6D870022900FA5E004F080CA7F01FD
:016D920022DE
:0D680A00900FAFEFF0A3EDF0A3EB1254A040
:10681700E4A3F0900FB4E0FFC394FF503B1255522E
:10682700126A48900FAFE0FF9011ACE0B5072190D6
:106837000FB0E07015900FB4E0FF900FB11254D76E
:10684700F9126A48900FB4E0FF22900FB0E014F0FD
:0A685700900FB4E004F080BB7FFF57
:016861002214
:1052A600900FA2747FF0A374FFF0E4900FA6F07B3A
:1052B600017A11799A1257EA90119CE0900FA41284
:1052C60054FD900FA4EEF0A3EFF090119BE0FF9039
:1052D6000FA5E02FF0900FA4E03400F0A3E0240225
:1052E600F0900FA4E03400F07A0F79A7125392EFF2
:1052F600F46043900FA4E0FEA3E0FF900FABE0FC48
:10530600A3E0FDD39FEC9E4025ED9FFFEC9EFED3D0
:10531600900FA3E09FEE6480F8900FA2E06480985F
:10532600400CEEF0A3EFF07A1179A3125392900F8E
:10533600A6E004F080B2D20A127599C3900FA3E0DA
:1053460094A0900FA2E064809485502D9011AB74C8
:1053560001F0900FA4E0FCA3E0FD9011A5E0FEA3F0
:10536600E0FF9DEE9C400280089011A7E0FEA3E0BE
:10537600FF9011AAE0FD025F5DE4FDFFFE125F5D96
:0B5386009011A97402F0E49011ABF04C
:105391002290119DE0FF900FA6E0FD7B0112680AAB
:0153A10022E9
:1071C600E4900FA2F012705C900FA2E0FF1254BC84
:1071D6004A4B6010EF1254BCF91267B1900FA2E04F
:1071E60004F080E47BFF7A44799812458BEF14FF14
:0171F6002276
:07754100900FA2EB1254A011
:10754800E4FF900FA21254D7125549F5993099FDCE
:07755800C2990FEFB408EB2C
:01755F002209
:102E780012705C9045701254C9F91267B19045738D
:102E88001254C9F91267B19045761254C9F91267FC
:102E9800B19045791254C9F91267B190457C125422
:102EA800C9F91267B112556112458B900F96EFF070
:102EB800700302319024FE7003022FFA147003028B
:102EC80030861470030230B41470030230C3240433
:102ED800709E1231916099900F96E0900F98F012C1
:102EE80071C612556860EB900F96E0900F99F07AD2
:102EF8004479AE1231A560E7900F96E0900F9A12D0
:102F080054FD900F9AEEF0A3EFF07A4479BB12319A
:102F1800B560DC900F96E0FF900F9BE02FF0900FCC
:102F28009AE03400F07A4479C81231A560C1900F54
:102F380096E0FF7E00900F9C125500900F9CEEF0DB
